{
  "address": "0xe62177c707dE60D817814C6981eb67D0C042AC2e",
  "abi": [
    {
      "inputs": [
        {
          "internalType": "address",
          "name": "_rewardToken",
          "type": "address"
        },
        {
          "internalType": "uint256",
          "name": "_minMineInterval",
          "type": "uint256"
        }
      ],
      "stateMutability": "nonpayable",
      "type": "constructor"
    },
    {
      "inputs": [],
      "name": "ZamaProtocolUnsupported",
      "type": "error"
    },
    {
      "anonymous": false,
      "inputs": [
        {
          "indexed": true,
          "internalType": "address",
          "name": "player",
          "type": "address"
        },
        {
          "indexed": false,
          "internalType": "bytes32",
          "name": "encryptedAmount",
          "type": "bytes32"
        }
      ],
      "name": "PlayerMined",
      "type": "event"
    },
    {
      "anonymous": false,
      "inputs": [
        {
          "indexed": true,
          "internalType": "address",
          "name": "player",
          "type": "address"
        },
        {
          "indexed": false,
          "internalType": "uint256",
          "name": "amount",
          "type": "uint256"
        }
      ],
      "name": "RewardDistributed",
      "type": "event"
    },
    {
      "inputs": [],
      "name": "calculateMyRank",
      "outputs": [
        {
          "internalType": "euint32",
          "name": "rankEnc",
          "type": "bytes32"
        }
      ],
      "stateMutability": "nonpayable",
      "type": "function"
    },
    {
      "inputs": [],
      "name": "confidentialProtocolId",
      "outputs": [
        {
          "internalType": "uint256",
          "name": "",
          "type": "uint256"
        }
      ],
      "stateMutability": "view",
      "type": "function"
    },
    {
      "inputs": [
        {
          "internalType": "address",
          "name": "player",
          "type": "address"
        },
        {
          "internalType": "uint256",
          "name": "amount",
          "type": "uint256"
        }
      ],
      "name": "distributeReward",
      "outputs": [],
      "stateMutability": "nonpayable",
      "type": "function"
    },
    {
      "inputs": [
        {
          "internalType": "uint256",
          "name": "index",
          "type": "uint256"
        }
      ],
      "name": "getPlayerAddress",
      "outputs": [
        {
          "internalType": "address",
          "name": "",
          "type": "address"
        }
      ],
      "stateMutability": "view",
      "type": "function"
    },
    {
      "inputs": [],
      "name": "getPlayerCount",
      "outputs": [
        {
          "internalType": "uint256",
          "name": "",
          "type": "uint256"
        }
      ],
      "stateMutability": "view",
      "type": "function"
    },
    {
      "inputs": [
        {
          "internalType": "address",
          "name": "player",
          "type": "address"
        }
      ],
      "name": "getPlayerLastMineTime",
      "outputs": [
        {
          "internalType": "uint256",
          "name": "",
          "type": "uint256"
        }
      ],
      "stateMutability": "view",
      "type": "function"
    },
    {
      "inputs": [
        {
          "internalType": "address",
          "name": "player",
          "type": "address"
        }
      ],
      "name": "getPlayerTotalMined",
      "outputs": [
        {
          "internalType": "euint32",
          "name": "",
          "type": "bytes32"
        }
      ],
      "stateMutability": "view",
      "type": "function"
    },
    {
      "inputs": [],
      "name": "getTotalMinedAmount",
      "outputs": [
        {
          "internalType": "euint32",
          "name": "",
          "type": "bytes32"
        }
      ],
      "stateMutability": "view",
      "type": "function"
    },
    {
      "inputs": [],
      "name": "minMineInterval",
      "outputs": [
        {
          "internalType": "uint256",
          "name": "",
          "type": "uint256"
        }
      ],
      "stateMutability": "view",
      "type": "function"
    },
    {
      "inputs": [
        {
          "internalType": "externalEuint32",
          "name": "encryptedAmount",
          "type": "bytes32"
        },
        {
          "internalType": "bytes",
          "name": "inputProof",
          "type": "bytes"
        }
      ],
      "name": "mine",
      "outputs": [],
      "stateMutability": "nonpayable",
      "type": "function"
    },
    {
      "inputs": [
        {
          "internalType": "uint256",
          "name": "",
          "type": "uint256"
        }
      ],
      "name": "playerAddresses",
      "outputs": [
        {
          "internalType": "address",
          "name": "",
          "type": "address"
        }
      ],
      "stateMutability": "view",
      "type": "function"
    },
    {
      "inputs": [
        {
          "internalType": "address",
          "name": "player",
          "type": "address"
        }
      ],
      "name": "playerExists",
      "outputs": [
        {
          "internalType": "bool",
          "name": "",
          "type": "bool"
        }
      ],
      "stateMutability": "view",
      "type": "function"
    },
    {
      "inputs": [
        {
          "internalType": "address",
          "name": "",
          "type": "address"
        }
      ],
      "name": "players",
      "outputs": [
        {
          "internalType": "euint32",
          "name": "totalMined",
          "type": "bytes32"
        },
        {
          "internalType": "bool",
          "name": "exists",
          "type": "bool"
        },
        {
          "internalType": "uint256",
          "name": "lastMineTime",
          "type": "uint256"
        }
      ],
      "stateMutability": "view",
      "type": "function"
    },
    {
      "inputs": [],
      "name": "rewardToken",
      "outputs": [
        {
          "internalType": "address",
          "name": "",
          "type": "address"
        }
      ],
      "stateMutability": "view",
      "type": "function"
    },
    {
      "inputs": [],
      "name": "totalMinedAmount",
      "outputs": [
        {
          "internalType": "euint32",
          "name": "",
          "type": "bytes32"
        }
      ],
      "stateMutability": "view",
      "type": "function"
    }
  ],
  "transactionHash": "0x87159ecd3b09cc9830d7cf86ff8a5560f467691f0c71eab943e29f2bd511cba2",
  "args": [
    "0x0000000000000000000000000000000000000000",
    10
  ],
  "numDeployments": 1,
  "solcInputHash": "4139573ec0e7b7a87d203d3c60692982",
  "bytecode": "0x608060405234801562000010575f80fd5b50604051620015153803806200151583398101604081905262000033916200034b565b620000d8620000416200010f565b80517f9e7b61f58c47dc699ac88507c4f5bb9f121c03808c5676a8078fe583e464970080546001600160a01b03199081166001600160a01b039384161790915560208301515f80516020620014f58339815191528054831691841691909117905560408301517f9e7b61f58c47dc699ac88507c4f5bb9f121c03808c5676a8078fe583e46497028054909216921691909117905550565b600280546001600160a01b0319166001600160a01b0384161790556003819055620001035f62000281565b60045550620003cd9050565b604080516060810182525f80825260208201819052918101919091524660010362000169575060408051606080820183525f8083526020808401829052928401819052835191820184528082529181018290529182015290565b4662aa36a703620001e9575060408051606080820183525f8083526020808401829052928401528251908101835273f0ffdc93b7e186bc2f8cb3daa75d86d1930a433d81527392c920834ec8941d2c77d188936e1f7a6f49c1279181019190915273be0e383937d564d7ff0bc3b46c51f0bf8d5c311a9181019190915290565b46617a690362000268575060408051606080820183525f8083526020808401829052928401528251908101835273f0ffdc93b7e186bc2f8cb3daa75d86d1930a433d81527392c920834ec8941d2c77d188936e1f7a6f49c1279181019190915273be0e383937d564d7ff0bc3b46c51f0bf8d5c311a9181019190915290565b6040516373cac13b60e01b815260040160405180910390fd5b5f6200029563ffffffff831660046200029b565b92915050565b5f80516020620014f583398151915254604051639cd07acb60e01b81525f917f9e7b61f58c47dc699ac88507c4f5bb9f121c03808c5676a8078fe583e4649700916001600160a01b0390911690639cd07acb9062000300908790879060040162000384565b6020604051808303815f875af11580156200031d573d5f803e3d5ffd5b505050506040513d601f19601f82011682018060405250810190620003439190620003b5565b949350505050565b5f80604083850312156200035d575f80fd5b82516001600160a01b038116811462000374575f80fd5b6020939093015192949293505050565b8281526040810160548310620003a857634e487b7160e01b5f52602160045260245ffd5b8260208301529392505050565b5f60208284031215620003c6575f80fd5b5051919050565b61111a80620003db5f395ff3fe608060405234801561000f575f80fd5b50600436106100f0575f3560e01c8063b18517d711610093578063e2eb41ff11610063578063e2eb41ff146101ee578063e446dcf31461023a578063f009150914610242578063f7c618c11461024b575f80fd5b8063b18517d71461018c578063bbe5230014610195578063c2e52206146101d3578063d2dbfc14146101db575f80fd5b806365225665116100ce578063652256651461014b578063767e9ca21461015e5780638927b0301461017157806391d708d414610179575f80fd5b806315c6aee2146100f45780631ec8bb8c1461012457806327eec67e14610139575b5f80fd5b610107610102366004610f3e565b61025e565b6040516001600160a01b0390911681526020015b60405180910390f35b610137610132366004610f70565b610286565b005b6004545b60405190815260200161011b565b610107610159366004610f3e565b6103c9565b61013d61016c366004610f98565b610455565b61013d6104e9565b610137610187366004610fb1565b6104f7565b61013d60035481565b6101c36101a3366004610f98565b6001600160a01b03165f9081526020819052604090206001015460ff1690565b604051901515815260200161011b565b60015461013d565b61013d6101e9366004610f98565b610753565b61021f6101fc366004610f98565b5f60208190529081526040902080546001820154600290920154909160ff169083565b6040805193845291151560208401529082015260600161011b565b61013d6107ea565b61013d60045481565b600254610107906001600160a01b031681565b6001818154811061026d575f80fd5b5f918252602090912001546001600160a01b0316905081565b6001600160a01b0382165f9081526020819052604090206001015460ff166103045760405162461bcd60e51b815260206004820152602660248201527f4d696e696e674368616c6c656e67653a20506c6179657220646f6573206e6f7460448201526508195e1a5cdd60d21b60648201526084015b60405180910390fd5b6002546001600160a01b03166103825760405162461bcd60e51b815260206004820152602560248201527f4d696e696e674368616c6c656e67653a2052657761726420746f6b656e206e6f60448201527f742073657400000000000000000000000000000000000000000000000000000060648201526084016102fb565b816001600160a01b03167fe34918ff1c7084970068b53fd71ad6d8b04e9f15d3886cbf006443e6cdc52ea6826040516103bd91815260200190565b60405180910390a25050565b6001545f9082106104285760405162461bcd60e51b8152602060048201526024808201527f4d696e696e674368616c6c656e67653a20496e646578206f7574206f6620626f604482015263756e647360e01b60648201526084016102fb565b6001828154811061043b5761043b611026565b5f918252602090912001546001600160a01b031692915050565b6001600160a01b0381165f9081526020819052604081206001015460ff166104ce5760405162461bcd60e51b815260206004820152602660248201527f4d696e696e674368616c6c656e67653a20506c6179657220646f6573206e6f7460448201526508195e1a5cdd60d21b60648201526084016102fb565b506001600160a01b03165f9081526020819052604090205490565b5f6104f2610942565b905090565b5f6105378484848080601f0160208091040260200160405190810160405280939291908181526020018383808284375f9201919091525061097692505050565b90506105428161098c565b50335f9081526020819052604090206001015460ff16156105f157600354335f9081526020819052604090206002015461057c919061103a565b4210156105f15760405162461bcd60e51b815260206004820152602760248201527f4d696e696e674368616c6c656e67653a20546f6f20736f6f6e20746f206d696e60448201527f6520616761696e0000000000000000000000000000000000000000000000000060648201526084016102fb565b335f9081526020819052604090206001015460ff1661069c57335f9081526020819052604081206001908101805460ff191690911790556106319061099b565b335f8181526020819052604081209290925560018054808201825592527fb10e2d527612073b26eecdfd717e6a320cf44b4afac2b0732d9fcbe2b7fa0cf690910180547fffffffffffffffffffffffff00000000000000000000000000000000000000001690911790555b335f908152602081905260409020546106b590826109ad565b335f908152602081905260409020556004546106d190826109ad565b60048190556106df9061098c565b50335f908152602081905260409020426002820155546106fe9061098c565b50335f81815260208190526040902054610717916109db565b506040515f815233907f3d63b0ac1528f2fce0eb9e97fdcec79a5263bd57f2682e3ba3631d367c7dac1e9060200160405180910390a250505050565b6001600160a01b0381165f9081526020819052604081206001015460ff166107cc5760405162461bcd60e51b815260206004820152602660248201527f4d696e696e674368616c6c656e67653a20506c6179657220646f6573206e6f7460448201526508195e1a5cdd60d21b60648201526084016102fb565b506001600160a01b03165f9081526020819052604090206002015490565b335f9081526020819052604081206001015460ff1661085a5760405162461bcd60e51b815260206004820152602660248201527f4d696e696e674368616c6c656e67653a20506c6179657220646f6573206e6f7460448201526508195e1a5cdd60d21b60648201526084016102fb565b335f90815260208190526040812054906108738161099b565b6001549091505f5b81811015610911575f6001828154811061089757610897611026565b5f918252602090912001546001600160a01b03169050338114610908576001600160a01b0381165f90815260208190526040812054906108d782886109ed565b90505f6108f6826108e8600161099b565b6108f15f61099b565b610a1b565b905061090287826109ad565b96505050505b5060010161087b565b5061092582610920600161099b565b6109ad565b93506109308461098c565b5061093b84336109db565b5050505090565b5f466001036109515750600190565b4662aa36a703610962575061271190565b46617a690361097157505f1990565b505f90565b5f61098383836004610a64565b90505b92915050565b5f6109978230610b84565b5090565b5f6109868263ffffffff166004610c0d565b5f826109bf576109bc5f61099b565b92505b816109d0576109cd5f61099b565b91505b61098383835f610cca565b5f6109e68383610b84565b5090919050565b5f826109ff576109fc5f61099b565b92505b81610a1057610a0d5f61099b565b91505b61098383835f610dc5565b5f83610a2d57610a2a5f610e7a565b93505b82610a3e57610a3b5f61099b565b92505b81610a4f57610a4c5f61099b565b91505b610a5a848484610e95565b90505b9392505050565b7f9e7b61f58c47dc699ac88507c4f5bb9f121c03808c5676a8078fe583e46497015460405163045fc19560e11b81525f917f9e7b61f58c47dc699ac88507c4f5bb9f121c03808c5676a8078fe583e4649700916001600160a01b03909116906308bf832a90610add908890339089908990600401611079565b6020604051808303815f875af1158015610af9573d5f803e3d5ffd5b505050506040513d601f19601f82011682018060405250810190610b1d91906110e2565b8154604051630f8e573b60e21b8152600481018390523360248201529193506001600160a01b031690633e395cec906044015f604051808303815f87803b158015610b66575f80fd5b505af1158015610b78573d5f803e3d5ffd5b50505050509392505050565b5f7f9e7b61f58c47dc699ac88507c4f5bb9f121c03808c5676a8078fe583e46497008054604051635ca4b5b160e11b8152600481018690526001600160a01b03858116602483015292935091169063b9496b62906044015f604051808303815f87803b158015610bf2575f80fd5b505af1158015610c04573d5f803e3d5ffd5b50505050505050565b7f9e7b61f58c47dc699ac88507c4f5bb9f121c03808c5676a8078fe583e464970154604051639cd07acb60e01b81525f917f9e7b61f58c47dc699ac88507c4f5bb9f121c03808c5676a8078fe583e4649700916001600160a01b0390911690639cd07acb90610c8290879087906004016110f9565b6020604051808303815f875af1158015610c9e573d5f803e3d5ffd5b505050506040513d601f19601f82011682018060405250810190610cc291906110e2565b949350505050565b5f808215610cdd5750600160f81b610ce0565b505f5b7f9e7b61f58c47dc699ac88507c4f5bb9f121c03808c5676a8078fe583e46497015460405163022f65e760e31b815260048101879052602481018690527fff00000000000000000000000000000000000000000000000000000000000000831660448201527f9e7b61f58c47dc699ac88507c4f5bb9f121c03808c5676a8078fe583e4649700916001600160a01b03169063117b2f38906064015b6020604051808303815f875af1158015610d97573d5f803e3d5ffd5b505050506040513d601f19601f82011682018060405250810190610dbb91906110e2565b9695505050505050565b5f808215610dd85750600160f81b610ddb565b505f5b7f9e7b61f58c47dc699ac88507c4f5bb9f121c03808c5676a8078fe583e4649701546040516385362ee760e01b815260048101879052602481018690527fff00000000000000000000000000000000000000000000000000000000000000831660448201527f9e7b61f58c47dc699ac88507c4f5bb9f121c03808c5676a8078fe583e4649700916001600160a01b0316906385362ee790606401610d7b565b5f61098682610e89575f610e8c565b60015b60ff165f610c0d565b5f807f9e7b61f58c47dc699ac88507c4f5bb9f121c03808c5676a8078fe583e46497006001810154604051637702dcff60e01b81526004810188905260248101879052604481018690529192506001600160a01b031690637702dcff906064016020604051808303815f875af1158015610f11573d5f803e3d5ffd5b505050506040513d601f19601f82011682018060405250810190610f3591906110e2565b95945050505050565b5f60208284031215610f4e575f80fd5b5035919050565b80356001600160a01b0381168114610f6b575f80fd5b919050565b5f8060408385031215610f81575f80fd5b610f8a83610f55565b946020939093013593505050565b5f60208284031215610fa8575f80fd5b61098382610f55565b5f805f60408486031215610fc3575f80fd5b83359250602084013567ffffffffffffffff80821115610fe1575f80fd5b818601915086601f830112610ff4575f80fd5b813581811115611002575f80fd5b876020828501011115611013575f80fd5b6020830194508093505050509250925092565b634e487b7160e01b5f52603260045260245ffd5b8082018082111561098657634e487b7160e01b5f52601160045260245ffd5b6054811061107557634e487b7160e01b5f52602160045260245ffd5b9052565b8481525f60206001600160a01b03861660208401526080604084015284518060808501525f5b818110156110bb5786810183015185820160a00152820161109f565b505f60a0828601015260a0601f19601f83011685010192505050610f356060830184611059565b5f602082840312156110f2575f80fd5b5051919050565b82815260408101610a5d602083018461105956fea164736f6c6343000818000a9e7b61f58c47dc699ac88507c4f5bb9f121c03808c5676a8078fe583e4649701",
  "devdoc": {
    "kind": "dev",
    "methods": {
      "calculateMyRank()": {
        "details": "This function computes the rank by counting how many players have higher scores. All operations are performed in the encrypted domain: - Uses FHE.gt() to compare encrypted amounts - Uses FHE.select() to conditionally add 1 to the count - Returns encrypted rank that only the caller can decrypt",
        "returns": {
          "rankEnc": "The encrypted rank (number of players with higher scores + 1)"
        }
      },
      "constructor": {
        "params": {
          "_minMineInterval": "Minimum time between mines in seconds",
          "_rewardToken": "Address of the reward token contract (can be zero address)"
        }
      },
      "distributeReward(address,uint256)": {
        "details": "This is a simplified reward function. In production, you would: 1. Compute rankings using encrypted comparisons 2. Distribute rewards based on encrypted rankings 3. Use a more sophisticated reward mechanism",
        "params": {
          "amount": "Amount of reward tokens to distribute",
          "player": "Address of the player to reward"
        }
      },
      "getPlayerAddress(uint256)": {
        "params": {
          "index": "The index in the playerAddresses array"
        },
        "returns": {
          "_0": "The player address at the given index"
        }
      },
      "getPlayerCount()": {
        "returns": {
          "_0": "The number of players who have mined"
        }
      },
      "getPlayerLastMineTime(address)": {
        "params": {
          "player": "Address of the player"
        },
        "returns": {
          "_0": "The timestamp of the last mine"
        }
      },
      "getPlayerTotalMined(address)": {
        "params": {
          "player": "Address of the player"
        },
        "returns": {
          "_0": "The encrypted total mined amount"
        }
      },
      "getTotalMinedAmount()": {
        "returns": {
          "_0": "The encrypted total amount"
        }
      },
      "mine(bytes32,bytes)": {
        "params": {
          "encryptedAmount": "The encrypted amount of resources mined",
          "inputProof": "The input proof for the encrypted amount"
        }
      },
      "playerExists(address)": {
        "params": {
          "player": "Address of the player"
        },
        "returns": {
          "_0": "Whether the player has mined before"
        }
      }
    },
    "title": "Mining Challenge - Privacy-Preserving Mining DApp",
    "version": 1
  },
  "userdoc": {
    "errors": {
      "ZamaProtocolUnsupported()": [
        {
          "notice": "Returned if the Zama protocol is not supported on the current chain"
        }
      ]
    },
    "kind": "user",
    "methods": {
      "calculateMyRank()": {
        "notice": "Calculate the encrypted rank of the caller"
      },
      "constructor": {
        "notice": "Constructor"
      },
      "distributeReward(address,uint256)": {
        "notice": "Distribute rewards based on ranking (simplified version)"
      },
      "getPlayerAddress(uint256)": {
        "notice": "Get player address by index"
      },
      "getPlayerCount()": {
        "notice": "Get the number of players"
      },
      "getPlayerLastMineTime(address)": {
        "notice": "Get player's last mine time"
      },
      "getPlayerTotalMined(address)": {
        "notice": "Get player's encrypted total mined amount"
      },
      "getTotalMinedAmount()": {
        "notice": "Get the encrypted total amount mined by all players"
      },
      "mine(bytes32,bytes)": {
        "notice": "Mine resources with encrypted amount"
      },
      "playerExists(address)": {
        "notice": "Check if a player exists"
      }
    },
    "notice": "A DApp that allows players to mine resources with encrypted amounts. The total mining amount, rankings, and rewards are computed on encrypted data.",
    "version": 1
  },
  "storageLayout": {
    "storage": [
      {
        "astId": 39590,
        "contract": "src/MiningChallenge.sol:MiningChallenge",
        "label": "players",
        "offset": 0,
        "slot": "0",
        "type": "t_mapping(t_address,t_struct(PlayerData)39585_storage)"
      },
      {
        "astId": 39593,
        "contract": "src/MiningChallenge.sol:MiningChallenge",
        "label": "playerAddresses",
        "offset": 0,
        "slot": "1",
        "type": "t_array(t_address)dyn_storage"
      },
      {
        "astId": 39595,
        "contract": "src/MiningChallenge.sol:MiningChallenge",
        "label": "rewardToken",
        "offset": 0,
        "slot": "2",
        "type": "t_address"
      },
      {
        "astId": 39597,
        "contract": "src/MiningChallenge.sol:MiningChallenge",
        "label": "minMineInterval",
        "offset": 0,
        "slot": "3",
        "type": "t_uint256"
      },
      {
        "astId": 39600,
        "contract": "src/MiningChallenge.sol:MiningChallenge",
        "label": "totalMinedAmount",
        "offset": 0,
        "slot": "4",
        "type": "t_userDefinedValueType(euint32)39183"
      }
    ],
    "types": {
      "t_address": {
        "encoding": "inplace",
        "label": "address",
        "numberOfBytes": "20"
      },
      "t_array(t_address)dyn_storage": {
        "base": "t_address",
        "encoding": "dynamic_array",
        "label": "address[]",
        "numberOfBytes": "32"
      },
      "t_bool": {
        "encoding": "inplace",
        "label": "bool",
        "numberOfBytes": "1"
      },
      "t_mapping(t_address,t_struct(PlayerData)39585_storage)": {
        "encoding": "mapping",
        "key": "t_address",
        "label": "mapping(address => struct MiningChallenge.PlayerData)",
        "numberOfBytes": "32",
        "value": "t_struct(PlayerData)39585_storage"
      },
      "t_struct(PlayerData)39585_storage": {
        "encoding": "inplace",
        "label": "struct MiningChallenge.PlayerData",
        "members": [
          {
            "astId": 39580,
            "contract": "src/MiningChallenge.sol:MiningChallenge",
            "label": "totalMined",
            "offset": 0,
            "slot": "0",
            "type": "t_userDefinedValueType(euint32)39183"
          },
          {
            "astId": 39582,
            "contract": "src/MiningChallenge.sol:MiningChallenge",
            "label": "exists",
            "offset": 0,
            "slot": "1",
            "type": "t_bool"
          },
          {
            "astId": 39584,
            "contract": "src/MiningChallenge.sol:MiningChallenge",
            "label": "lastMineTime",
            "offset": 0,
            "slot": "2",
            "type": "t_uint256"
          }
        ],
        "numberOfBytes": "96"
      },
      "t_uint256": {
        "encoding": "inplace",
        "label": "uint256",
        "numberOfBytes": "32"
      },
      "t_userDefinedValueType(euint32)39183": {
        "encoding": "inplace",
        "label": "euint32",
        "numberOfBytes": "32"
      }
    }
  }
}